:100000000040002049100000891000008B10000003
:1000100000000000000000000000000000000000E0
:100020000000000000000000000000008D10000033
:1000300000000000000000008F1000009110000080
:1000400093100000752E000093100000250D000095
:1000500093100000000000009310000093100000B7
:10006000293E000093100000931000009310000040
:1000700093100000931000009310000093100000F4
:1000800093100000931000009310000093100000E4
:1000900093100000DD310000931000009310000069
:1000A000931000009310000000000000000000000A
:1000B0000000000000000000000000000000000040
:1000C00010B5064C2378002B07D1054B002B02D02E
:1000D000044800E000BF0123237010BD9000002001
:1000E000000000009C3F0000044B10B5002B03D023
:1000F0000349044800E000BF10BDC04600000000F6
:10010000940000209C3F0000402292029A1A9246DE
:100110007047C046154B002B00D1114B9D46FFF791
:10012000F3FF00218B460F461148124A121A00F0C5
:100130007BF80C4B002B00D098470B4B002B00D0CA
:1001400098470020002104000D000B4800F016F82D
:1001500000F046F82000290000F096F900F016F8AB
:100160000000080000000000000000000040002027
:100170009000002074050020B9010000002310B594
:1001800001001A00180000F057F810BD084B10B518
:100190000400002B02D0002100F0B2F8054B1868D3
:1001A000836A002B00D09847200000F007F9C04672
:1001B00001030000603F000070B5074D074C641B51
:1001C000A410002C02D103F0C5FE70BD013CA300B9
:1001D000EB589847F5E7C0468C00002090000020BF
:1001E00070B500260C4D0D4C641BA410A64209D11D
:1001F000002603F0A9FE0A4D0A4C641BA410A64277
:1002000005D170BDB300EB5898470136EEE7B30057
:10021000EB5898470136F2E788000020880000205C
:10022000880000208C00002003008218934200D137
:10023000704719700133F9E7F0B52C4D85B0060011
:10024000286802930091019200F0B4F8284B1C68D2
:10025000002C09D1274C1C60274B002B04D0220016
:100260001B6888320393136063681F2B06DD2868C0
:1002700000F0A2F80120404205B0F0BD002E29D0C8
:10028000270088373868002812D11C4B002B03D177
:10029000286800F090F8EDE78420400000E000BFFF
:1002A0000028F5D003000022FC335A609A603860C1
:1002B0006168019A8B00C31804C301228A40FC3094
:1002C0004168114341600299D967022E02D18368C7
:1002D0001A438260636828685A1C62600233009A7D
:1002E0009B001A5100F068F80020C5E7600000206C
:1002F00038010020AC0000200000000000000000D9
:10030000F0B52A4B85B003901868019100F052F8BF
:10031000274B1C68002C05D1244B186800F04CF8C2
:1003200005B0F0BD2300656888336E1E1F68AD0000
:100330006519002EF0DB019B002B0BD0002F02D1A2
:10034000013E043DF5E73B00B20080339B58019A23
:100350009342F5D162686B68013AB24217D1666088
:10036000002BEDD062680292002F06D001223800E7
:10037000B240FC30416811420CD198470C4B626886
:1003800002991B688A42C3D19C42D9D0C0E700229F
:100390006A60E5E78068B1007958104202D103989D
:1003A0009847EBE708009847E8E7C0466000002060
:1003B000380100207047704770470000FEE7C046D4
:1003C0001322142310B584B000920193CD23DB04D3
:1003D00002930123064C0022694603932000002368
:1003E00000F022FA200000F02BFB04B010BDC04644
:1003F000643F000070B5214D214C82B02A0001916C
:100400002100060000F01AFF2A68002A20D0002EE2
:1004100020D1D31FF82B27D823681A4D2B609308BF
:10042000012B01D063686B60032311009943CBB2A9
:100430008A420DD0605C6854591CC9B28A4207D9FF
:10044000605C0233DBB268549A4201D9E25CEA5440
:1004500002B070BD00230B4DE05CE9180133DBB244
:1004600008719A42F8D8F3E70023064DE15CE9549D
:100470000133DBB29A42F9D8EAE7C04664000020B3
:100480004C0100206C010020F0B5DE4657464E4678
:100490004546A0210C23E0B5504A0226C9058B50E1
:1004A000043A8B504E4A85B08B50043A8B504D4ADB
:1004B0008B50043A8B504C4A8B504C4A8B50043230
:1004C0008B50083A8B504A4A8B5004328B50494A21
:1004D0008B5004328B50484A8B501C3A8B50474A01
:1004E0008B5004328B50FFF76BFF012001F06AF94B
:1004F00000F040FE424F434D434C0397A023A222FD
:10050000DB05D2009B580421DB43D80B5A0B0A4071
:1005100030401043012208278946590C11400843F6
:10052000D90A3940B84608430837590A39400843C0
:1005300002904846BC46990ADF0907403140180B33
:1005400039430700D80917403943070040460740A0
:1005500018093943070060460740D80839430700A7
:100560003740BA464F460740B94683465746484645
:100570000743584602403A43474607403A436746D6
:10058000074007203A4307001F40BC46100482463C
:1005900060460023000681465046029F98460B02A3
:1005A0003B430343484603436B60434623702B7829
:1005B000039863706B78A370AB78E370EB78A171EC
:1005C0002371634623724346E271677122000093F0
:1005D0002021093300F046FA90E7C04644070000A6
:1005E0003C070000340700002C070000240700002F
:1005F0000C070000140700001C070000040700009F
:10060000643F00006C0100204001002082B002B075
:100610007047C04682B002B07047C0467047C046BF
:1006200030B5FF2503232A000340DB009A408901EF
:100630000D40D2439D40C4B2002814DB104B80080B
:100640009C46C023800060449B00C1580A402A4356
:10065000C2501F2201232240C0219340084A490072
:100660005350136030BD0F23064923408C46083B8E
:100670009B089B006344D9690A402A43DA61E8E792
:1006800000E100E000ED00E0F0B5DE4657464E46E2
:100690004546E0B5822483B00192002264000A51ED
:1006A00020340A51083C0A51143C0A51E23C0255DC
:1006B000033C025580229200012B14D001248C505F
:1006C00001220A620A600268002A14D0504B83603B
:1006D000826800207E33CA5003B0F0BCBB46B246ED
:1006E000A946A046F0BD213C8C5001220A620A6056
:1006F0000268002AEAD11D32FF329046143A914630
:10070000043A92249346DE3A23260025924664005A
:100710000093825D002A1DD15746C75DBC460F5924
:10072000002F3ED142468A58002A42D042468F507E
:100730000A59002A5ED15246009B825C93425ED9E0
:10074000019FBF5C334A8F5052465746825C01324C
:10075000C2552AE042460D518D504A468D505A46A8
:100760008A58002AD5D000235A468B502333C35CC5
:10077000002B14D0284A8B588B50002B0FD001200F
:10078000264A1840013810408222120294466044E2
:100790009A0700D522485B079ED522489CE7002097
:1007A0009AE70A5101224A618255009B6345B0D104
:1007B000D5E74F46CF59002FF7D04F46CA510F59B2
:1007C000002FEED15246009B825C9342EDD9A327C5
:1007D000FF00CF59019B9F545346C25C0132D2B2F5
:1007E000C254009B5F1EBA420CD09342DDD001225E
:1007F0000A62DAE701220F514A618255D5E70122E8
:100800004A61D2E78022022792008F50EFE7C0466C
:10081000860200001C050000C4040000037EFFFFE8
:100820000182000002820000F0B557464E46454660
:10083000DE46E0B583B0019207799C46BB00DE1925
:10084000784CF6001500A2190093130022331B7890
:10085000002B00D0D8E0A551160065462536337030
:10086000013E9360556033708B7B273213704B7B56
:10087000002B31D1A0220B686B4EC133FF33D20560
:100880009B009E504B68C133FF339B009E500A680B
:1008900003689446A1226546D2004E689D50634A83
:1008A0009E508E68624A9E50019B002B05D00068C6
:1008B000097B000B40B2FFF7B3FE009B0020DD195F
:1008C0000123ED0064192234237003B0F0BCBB4651
:1008D000B246A946A046F0BDA0230A68524EC132D6
:1008E000FF32DB059200D6504A68C132FF329200D7
:1008F000D650012215000E68B5402E00A125ED004E
:100900005E514E68B2405A510A684A4EC132FF32B7
:100910009200D6504A68C132FF329200D650464A01
:1009200012689046454A92460422C046C046C046D8
:10093000C046C046C046C046C046D04500D0C046AE
:10094000013AF2D100229446043293460200012675
:100950006046A1469446009DA222D2004C689A5857
:10096000E240164200D051E034000A689440220070
:100970002E4C1A515A46C046C046C046C046C046D4
:10098000C046C046C046D04500D0C046013AF2D16C
:1009900034000A6894402200A124E4001A515A4607
:1009A000C046C046C046C046C046C046C046C04617
:1009B000D04500D0C046013AF2D101300928CBD150
:1009C0004B684C4660469946009501234D461A00F7
:1009D000AA409446A0226546144ED205955104269D
:1009E000164DC046C046C046C046C046C046C0467A
:1009F000C046A84500D0C046013EF2D14E68B34083
:100A0000A126F600935135E708205EE76346844649
:100A10004A4618006346A14600951400002BD4D125
:100A200028E7C046740100200C0600000C050000F9
:100A3000240500000D060000680000200024F400DA
:100A4000A023017902680520DB00D0508A00044B06
:100A50005218D2009B18022222331A707047C046E7
:100A600074010020F0B5DE4657464E464546E0B5D7
:100A7000070089B0039312AB1C7805AD88469146F8
:100A800000210C222800FFF7CFFB63019A463B7937
:100A90009D499A008C46D4189346C2203A68012793
:100AA000E400644480007F421750270024373878E0
:100AB0000293844666460191C0B2002E5BD10126A6
:100AC0003E70B4465646A661464627006E704E46B6
:100AD000039B6E60AB700C374ACD4AC72500039B61
:100AE00020352B704D46E561B12546465746ED0051
:100AF00056517D1EAF41250021352F7082252700DC
:100B00006D00505120355051083D50512637143D4D
:100B100050513870F835033F505138706046DB3D16
:100B20001062FF3D9060605D83421ED94B461F5CA2
:100B300076481750605D01306055029B58469C46D0
:100B4000019B6044C0001C58002C1DD09C46704B7B
:100B500060448360816800207E33D15009B0F0BCCE
:100B6000BB46B246A946A046F0BD5346002B08D16D
:100B700063465361E1E7C123A1689B001120D15076
:100B8000ECE76346D361D8E79C46190092236044A2
:100B90000500263084465B009846039E029B233561
:100BA0002C78002C20D147466046D7590078002F7A
:100BB00073D18E2464001459002C62D08E246400FA
:100BC000175144461459002C6DD044461751012446
:100BD00054612C708642E3D18220400010580028D6
:100BE000DED0029301911AE092248E258426002003
:100BF000822764006D00760010517F0050519051A3
:100C0000D05902930191002809D19C4610515051AE
:100C10009051D359002BF9D0634601910293822061
:100C20000024400014505B4602995818019BC000F4
:100C30009C46604423300078002814D0354814586E
:100C40001450002C0FD0822301201B029C46324AF4
:100C50002040013810406044A20700D52F486407A7
:100C600002D52F4800E00020029B01995B44DB0085
:100C7000CA58002A00D071E78C46634424331A70A6
:100C80006CE784277F00D759002FA3D084277F00EB
:100C9000D4514746D759002F15D04746D451012487
:100CA00054612C7096E7864205D85446002C20D11A
:100CB000012454618EE74C46275C144C01301751D7
:100CC000644620706CE7864284D9A3244F46E40032
:100CD00014593C546046644600780130C0B220701C
:100CE000741EA0420AD0864200D159E7012010624A
:100CF00056E7012002930191D06194E780200224FD
:100D000080001450F2E7C046740100201C0500006A
:100D100086020000C4040000037EFFFF0182000081
:100D200002820000F0B54E464546DE465746E0B525
:100D3000C04C2322E369A15C98462023E05C013388
:100D4000E35C87B09946002916D1262392259C465C
:100D5000E75CB94B6D005E59AB46002E37D0595158
:100D600001215961A154B8420FD007B0F0BCBB4675
:100D7000B246A946A046F0BD92210022AE4B4900E2
:100D80005A5008395A5014395A508223AA4A5B00E3
:100D9000D1580029E9D00021D1502326A05DA569B2
:100DA000002844D1277BBB1E012B54D9220003AB62
:100DB0000C32C2CAC2C3002302A80370242300223B
:100DC000E2546D07D1D4616823689847CDE78E213E
:100DD00049005D58002D0AD05E50594659580029E7
:100DE00051D059465E5001215961A154BBE784217D
:100DF00049005E58002EB6D05D505946595800291A
:100E000049D1B842AFD9A3224146D2009A58CA5517
:100E100062466146A25C0132D2B26254411E8A42ED
:100E20006FD09042A1D00122834B1A629DE722002D
:100E300003AB0C32C2CAC2C3804A7F4902A88B5896
:100E40008B5002221A4202D001230370B6E75B07DF
:100E5000B4D50270B2E7E26923699A42A6D1202193
:100E600063699A46E361E37B635429400A00551E97
:100E7000AA4121256255032F18D0524620006E4901
:100E8000FFF702FC71E7B84208D84A46002A31D180
:100E900001225A6167E729005D4660E74246D15D5D
:100EA000674A013799506346E7545EE7624D02375F
:100EB000FF37E8512037E851083FE851143FE85127
:100EC000F837E851DB3FFF3FE055A055013028627D
:100ED000A860002B11D05246594E1278AA51E05505
:100EE0002068002812D0574B534AA360A1687E3374
:100EF000D1503AE70122DA614FE7002975D16861E4
:100F0000EEE780220221920099508CE7262291463A
:100F1000FE329446243AFF3A9046232552469A469A
:100F200045480191665D002E20D14B46E75C634643
:100F3000C358002B31D06346C650434643616355C6
:100F4000BA45EFD182235B00C358002BEAD082233D
:100F50000021394A5B00D1502323E35C002B00D1F0
:100F600003E7354A354BD158D150FEE692208E2505
:100F7000842600228227304B40006D0076001A50F4
:100F80007F005A519A51DA59002AE0D11A505A5129
:100F90009A51D9590029F9D0D9E78E26760081597E
:100FA000002909D0614683514658002E14D0435081
:100FB000434643616355C3E784235B00C658002E54
:100FC000BED0C1506346C358002B10D06346C150F9
:100FD000434643616355B3E7BA451DD9D65D184B07
:100FE0000137C6504B46E7549CE7E86178E7BA45BD
:100FF000A6D9A323DB00C3584946D3554B46E35C2F
:101000000133DBB2635451464E1EB3420DD09A45B4
:1010100088D04346036285E7019B002B02D14346FB
:1010200043618DE70123C36196E7802302219B0082
:10103000C150EEE77401002000300040C4040000FD
:101040001C0500008602000003210A4802680A43CA
:101050000260094802680A4302600849084A094BCD
:101060009B1A03DD043BC858D050FBDC00F012F89B
:10107000FFF750F82405004054050040A83F000049
:101080000000002090000020FEE7FEE7FEE7FEE7FC
:10109000FEE7FEE72D4B1B78012B00D070472C4B51
:1010A0001B681B07FAD12B4AF02312681100194064
:1010B0001A4201D0102946D1274A12681A421FD07D
:1010C000F022244B1B681340402B29D0F022214BE7
:1010D0001B681340A02B01D0D02BDFD1F0231E4A78
:1010E00012681A42DAD11D4A1368012B04D01C4B36
:1010F00013601368012BFCD1C0221A4B1A60CDE794
:10110000194B1A4A1A608022194B12021A600F4BAF
:101110001B78012BC2D10E4B1B681B07D0D0BDE73B
:101120000D4B1B681342D1D18022C1230121DB006A
:10113000D205D150054B1B78012BAFD1044B1B6856
:101140001B07C3D0AAE73029B6D0B9E7E00F00F0FB
:10115000E40F00F0E80F00F0EC0F00F000EC0640A8
:101160007593000014EC064004050040DFFF07C043
:10117000186C004008B5064B1868002803D10222FD
:10118000044B1A7002E001F0CDF8012008BDC04602
:101190009C010020DC010020014B1B68587E704739
:1011A0009C01002008B500F009FE002802D100F0E3
:1011B000F0FD01E0FFF732FA08BDF8B5171C051C79
:1011C0000C1C0422072805D8032200292DD0202F2B
:1011D00004D90622174B00241A7028E000F044FEC0
:1011E00009220228F6D8281C00F042FE0A22022812
:1011F000F0D800F041FE08220128EBD900F0ECFD08
:101200000122061C4378211C1343437007703A1CCB
:10121000023002F08FFEE8B2311C00F0F1FD041E36
:1012200005D1054802F0B6FA0F22024B1A70201CB5
:10123000F8BDC046DC010020DD00050070B5041CCF
:101240000D1C161C00F014FE002803D10B22154BB8
:101250001A7025E00322002D07D0201C00F0F6FDB7
:10126000326803789A4204D206220E4B00201A708C
:1012700016E0201C00F0E0FD041E0AD00278811C5C
:101280003260281C02F056FE201C00F0AFFD012049
:1012900006E0054802F07EFA0F22201C014B1A706E
:1012A00070BDC046DC0100200501050008B5072817
:1012B00004D90422034B00201A7001E000F0D4FD91
:1012C00008BDC046DC01002008B5072805D9042266
:1012D0000120034B40421A7001E000F0C9FD08BD37
:1012E000DC01002008B500F0C7FD0623181A08BD70
:1012F00010B5072803D904220B4B1A7004E0041C14
:10130000FFF7D4FF022801DD00200CE0201CFFF7CE
:10131000DBFF0228F8DCFFF7E5FF0623181A053B80
:1013200083428041404210BDDC01002008B50B4BD8
:101330001B685B7E002B04D00C22094B1A70002323
:1013400009E0072803D90421054A117003E0C0B25F
:1013500000F096FD0123181C08BDC0469C0100202A
:10136000DC01002008B5072804D90422044B002022
:101370001A7003E0C0B200F09DFD012008BDC04618
:10138000DC01002010B501280AD0002803D0022873
:1013900008D1002000E0012001F04EF8012005E016
:1013A0000220F9E705220020014B1A7010BDC0464B
:1013B000DC01002008B500F009FD0023012809D058
:1013C0000233002806D0013B022803D0024802F075
:1013D000E1F90223181C08BD7001050038B5124B55
:1013E0001B685B7E002B04D00222104B1A70002376
:1013F00017E04A1E0F2A01D9072102E0002803D175
:1014000003210A4A11700CE00C1C094D011C10C587
:10141000221C281C02F08EFD281C211C00F0BAFDA5
:101420000123181C38BDC0469C010020DC010020AF
:101430006C0000200C4B10B51A680C68944201D364
:10144000102C04D90722094B00201A700AE000284A
:1014500003D10322054B1A7004E00A60191D02F043
:1014600069FD012010BDC0466C000020DC01002099
:10147000014B18687047C0466C00002008B5074B48
:101480001B685B7E002B04D00222054B00201A70E3
:1014900002E000F019FD012008BDC0469C010020BB
:1014A000DC01002008B500F01FFD08BD08B5074BA2
:1014B0001B685B7E002B04D00222054B00201A70B3
:1014C00002E000F017FD012008BDC0469C0100208D
:1014D000DC01002008B500F01BFD08BD08B50A4B73
:1014E0001B685B7E002B04D00222084B1A7000237D
:1014F00008E0072803D90421044A117002E000F033
:101500000DFD0123181C08BD9C010020DC010020FA
:1015100010B5072804D90422064B00201A7007E0F2
:1015200003220029F8D00C1C00F024FD20700120BB
:1015300010BDC046DC01002008B5074B1B685B7E70
:10154000002B04D00222054B00201A7002E000F0AC
:1015500061FD012008BDC0469C010020DC01002087
:1015600008B500F05DFD08BD08B50E4A031C126801
:10157000507E002804D002220B4B00201A700FE08E
:10158000012B0AD0002B05D0022B05D00E22064BD2
:101590001A7005E0022000E0012000F0D5FD0120D6
:1015A00008BDC0469C010020DC01002008B501F008
:1015B00017F8031C0120002B03D0013B584258416F
:1015C000400008BD08B5144B1B685B7E002B04D09F
:1015D0000222124B1A7000231BE006280FD802F0DB
:1015E00057FC12041406080A0C0000200EE0F82034
:1015F0000CE0F4200AE0F02008E0EC2006E00E21E8
:10160000064A117005E0042000E0FC2000F042FDD5
:101610000123181C08BDC0469C010020DC010020ED
:1016200008B500F045FD0523F02811D006D80023A9
:1016300004280DD00633EC280AD008E00323F8284C
:1016400006D0013BFC2803D00233F42800D001234C
:10165000181C08BD08B5074B1B685B7E002B04D027
:101660000222054B00201A7002E000F0DFFC01208E
:1016700008BDC0469C010020DC01002008B500F038
:10168000DBFC08BD08B5074B1B685B7E002B04D054
:101690000222054B00201A7002E000F095FC0120A8
:1016A00008BDC0469C010020DC01002008B500F008
:1016B00091FC08BD08B5074B1B685B7E002B04D06E
:1016C0000222054B00201A7002E000F0C9FC012044
:1016D00008BDC0469C010020DC01002008B500F0D8
:1016E000C7FC08BD08B5074B1B685B7E002B04D008
:1016F0000222054B00201A7002E000F0A3FC01203A
:1017000008BDC0469C010020DC01002008B500F0A7
:10171000A1FC08BD08B5074B1B685B7E002B04D0FD
:101720000222054B00201A7002E000F0A7FC012005
:1017300008BDC0469C010020DC01002008B500F077
:10174000A3FC08BD08B50B4B1B685B7E002B04D0C7
:101750000222094B1A7000230AE0002805D0012854
:1017600003D00E21044A117002E000F051FF012362
:10177000181C08BD9C010020DC01002008B500F009
:101780004DFF01384342584108BD08B50B4B1B685B
:101790005B7E002B04D00222094B1A7000230AE062
:1017A000002805D0012803D00E21054A117002E05F
:1017B00000F046FF0123181C08BDC0469C01002014
:1017C000DC010020F8B51D4C0026071C201C1C4D18
:1017D000311C0C2208302E706660FEF725FD19487A
:1017E00000F042FE2060B04203D1012300202B70A4
:1017F00023E0154B181D1968FFF7F0FD041C381C79
:10180000FFF7C0FD2040C4B2042000F0E9FB301C0B
:10181000FFF798FF04400120FFF7D4FE04400220A8
:10182000FFF7A2FE0440301CFFF7AFFF0440012089
:1018300000F0DCFE002CD8D00120F8BD9C01002077
:10184000DC010020BF1800006C00002008B500F08B
:10185000FDFE01384342584108BD0022014BDA60C9
:101860007047C0469C010020014BD8687047C046B5
:101870009C0100200022044B1A72904202D00132D7
:1018800018611A727047C0469C010020014B1878FD
:101890007047C046DC0100200022014B1A707047DF
:1018A000DC010020014B58687047C0469C010020B5
:1018B0000022014B5A6070479C0100207047F0B530
:1018C0008BB00D1C0491111C090C0191002108AC76
:1018D000030C060A171C0891039005926160020E22
:1018E0000791011C6846C172C07ADBB2BFB2F6B282
:1018F0006946052853D802F0CBFA031328423F3C2F
:1019000022705BB28A885B42281CA2806780E380D9
:1019100000F06CFA301C08996268FEF777FE41E02F
:10192000214B1B685B7E002B02D1204801F032FF67
:10193000281C00F05BFA6B469B886780A380301CF4
:1019400008996268FEF766FE2CE05BB207A95B426D
:101950000A704B80002A07D0002D02D1144801F0F4
:1019600019FF281C00F042FA301C0799FEF742FDCF
:1019700018E0FEF753FE15E0FFF7A0FF12E00A4B58
:10198000DA680132DA601A7A002A0BD01A69002A62
:1019900002D1FFF707FC05E0013A1A6102E00548B1
:1019A00001F0F8FE0BB0F0BD9C010020B50305006E
:1019B000C3030500E30305000F22024B1A70024B1C
:1019C00058607047DC0100209C010020044B01207E
:1019D0001A78022A02D05868431E98417047C046C0
:1019E000E001002008B5FFF7F1FF044B044A00288E
:1019F00001D0D26800E092681A6008BDB4010020EE
:101A000018020020044A08B55368002B01D0013B9E
:101A10005360FFF7E7FF08BDE001002000231A1C18
:101A200010B5041C01211C4121400724E41AA140E7
:101A300001330A43D2B2082BF3D1101C10BD70B58C
:101A40000024061C251C301CE040C0B2FFF7E6FF56
:101A500018231B1B984008340543202CF3D1281C65
:101A600070BD38B50D1C01F065FE084C63699D42E0
:101A700002D8074801F08EFE63690648E91A012280
:101A800002F04AF90023636138BDC046E00100203E
:101A90004D0609007537000007B5A123C0210F4A84
:101AA0008900DB00D15001F085FD002815D0022807
:101AB0000AD9032811D1002300930193181C191C83
:101AC0001A1C01F0D3FC03E00020011C01F082FC91
:101AD000042802D0024801F05DFE07BD00F001407D
:101AE000E801090008B501F017FFA1230E4ADB0049
:101AF000D05001F05FFD012807D001F05BFD022806
:101B000002D00A4801F046FE002001F099FA02F0E6
:101B100087F9AA22064BD2009850064AD26851682B
:101B2000054A995008BDC046001000401E06090035
:101B300000F00140B40100205405000008B502F097
:101B4000DFF801280FD002F0BFF8074B1B7F002BF6
:101B500003D180230122DB055A60002001F0EAFD59
:101B60000022024B5A6008BD18020020E00100204C
:101B700008B502F0C5F8012822D101F0F5FD0028D2
:101B800002D0104801F006FE64210F48002202F046
:101B9000C3F80E4B197F002902D002F089F80FE03C
:101BA00001220B4B1A600B4B59608021C9050A605A
:101BB000C046C046C046C0465A68002AFCD0ECE782
:101BC00008BDC0462C060900753700001802002029
:101BD00014050040FC00004010B501F028FD00286D
:101BE0001BD000220D4B0E4C9A81DA8101F07AFB5A
:101BF0000C4BE05001F076FB01238340181CA62318
:101C0000DB00E05001F074FB074C206001F076FB34
:101C1000064B6060E360FFF765FF10BDE001002048
:101C2000001000402C050000FC010020751C000085
:101C300030B50E4D85B06B7E002B15D00024FFF71C
:101C40007DFF01F0B5F8052301A80370AC706C7638
:101C500044600481448144708470C47001F082FA4D
:101C6000034B1C70FFF718FF05B030BDE0010020EA
:101C7000140200208022F0B53C4BD2009A5887B065
:101C8000012A04D000263A4A9B58B34206D10026C6
:101C90002022384B5B681B789A427641364C636948
:101CA000002B05D102F032F8002801D10123636135
:101CB00001F080FC012802D0304801F06BFD304D6E
:101CC000EB681B7D002B02D02E4801F063FD01F074
:101CD0006FF8002E47D00120011C01F07BFB042887
:101CE00036D802F0D5F803321832320001F000FB8A
:101CF000E389A689071C019301F0F4FAEB686D46AD
:101D00000022997DAD8803AB1A7004971E815D8116
:101D10005870997014E001F0EBFAE389A689071C6A
:101D2000019301F0DFFA0021EB689A7D03AB197093
:101D300069469A700122898804971E8159815870DA
:101D4000DA70181C01F00EFA02E00F4801F022FDD3
:101D500001F008FE0D4B20615B696360FFF742FEF6
:101D6000002001F005FE07B0F0BDC04600100040A5
:101D700034050000FC010020E0010020A806090055
:101D8000B4010020A9060900C806090018020020B5
:101D9000704708B5012282F31088074B597E00294D
:101DA00005D09978002902D19A70FFF7E1FE00234F
:101DB00083F3108808BDC046E00100200120024BDB
:101DC0005B7E58407047C046E0010020014B187808
:101DD0007047C046E001002008B5012383F3108856
:101DE00001F086FC002383F3108808BD08B50123A9
:101DF00083F3108801F080FC002383F3108808BD72
:101E000010B5012383F3108801F0DAFB041E0CD017
:101E1000084B9A78002A04D15B7E002B01D0FFF793
:101E2000A7FE002383F3108801E080F31088201CB4
:101E300010BDC046E001002008B5012383F31088DF
:101E400001F0E6FB002383F3108808BD08B501F01C
:101E5000DAFB08BD08B5012383F3108801F0C3FB4A
:101E6000002383F3108808BD08B501F0C8FB08BD46
:101E700008B501F0D7FB08BD08B501F041FC08BD6D
:101E800010B50123041C83F31088084B1A78002A2C
:101E900005D05B7E002B02D0054801F07BFC201CA6
:101EA00001F0A5FB002383F3108810BDE0010020A2
:101EB000FB02090008B5012383F3108801F0ADFB94
:101EC000002383F3108808BD08B5044B1862FFF7A0
:101ED000B6FD034B034AD05008BDC046180200208F
:101EE0001C05000000100040014B186A7047C046F6
:101EF0001802002008B5044B5862FFF7A0FDA42388
:101F0000024ADB00D05008BD18020020001000403B
:101F1000014B586A7047C0461802002070B5072868
:101F20001CD8104B03251B1828331970FF230540BC
:101F3000ED00AB400C4CDB43032801D80B4E01E015
:101F4000A526F600A259081C1340A351FFF766FD11
:101F5000A840051CA3591D43A55102E0044801F007
:101F600019FC70BD1802002000100040240500007C
:101F70003903090010B5041E072C02D9034801F0EB
:101F800009FC034B1C192834207810BD41030900BB
:101F90001802002038B5051C0C1E02D1074801F0BC
:101FA000F9FB002D02D1064801F0F4FB054B00209F
:101FB0009D605C6001F0C4FC38BDC0464803090068
:101FC00049030900B4010020014B58617047C04625
:101FD00018020020014B58697047C04618020020C3
:101FE000A322064B064910B5D20058778C58054BF2
:101FF000000423401843885010BDC046180200203A
:1020000000100040FFFFF8FF014B587F7047C046AB
:1020100018020020014B18617047C04618020020CA
:10202000014B18697047C04618020020014B5860E8
:102030007047C04618020020014B58687047C046E0
:102040001802002008B5024BD860FFF7CBFC08BD92
:1020500018020020014BD8687047C04618020020C3
:1020600008B5024B9860FFF7BDFC08BD18020020C0
:10207000014B98687047C04618020020014B5883F6
:102080007047C04618020020014B588B7047C0466D
:1020900018020020034B044A30331870034BD05011
:1020A0007047C04618020020001000400C050000D8
:1020B000014B3033187870471802002010B5FF2408
:1020C000164B174A31331870164B9958A143995043
:1020D00003281FD8995801F0DBFE1B020B130120C7
:1020E00001439950FF21104A99500821FF310EE019
:1020F0000220014399500D490B4A99500C4906E0C2
:102100000320014399500B49074A99500021043A92
:10211000995002E0084801F03DFB10BD1802002074
:1021200034050000001000403C050000FFFF0000E7
:1021300021100100FFFFFF00C2030900014B3133F2
:1021400018787047180200201F4B3233187001288E
:1021500021D0002810D0022834D1A2231B4ADB0052
:10216000D0501B4A1B4B1A601B4A1C4B1A601C4A5E
:102170001C4B1A601C4A20E0A223144ADB00D050FA
:10218000134A144B1A60144A144B1A60174A154B21
:102190001A60174A11E0A2230C4ADB00D0500C4A07
:1021A0000C4B1A600C4A0D4B1A60124A0D4B1A6008
:1021B000114A124B1A60124A02E0104B1A60114A7F
:1021C000114B1A607047C0461802002000100040F2
:1021D00000500078241700404E000054281700409B
:1021E00008800C602C1700408864720003800C602B
:1021F0002264720002800C60116466003017004097
:10220000DEC08F823E420F8234170040F8B50026B0
:10221000C0270122324D334BBF00EE504C3BEF50F4
:10222000314C324BE650E250314B324AE1580A40D1
:102230000F21E250E2588A4309390A43E250E1583B
:102240002D4A0A40C02189020A43E2500433E15872
:102250002A4A0A408021E250E25849040A43FF21F9
:10226000E250E2588A43DF390A43E250E158244AF7
:102270000A40E250C0230221224A5B00D15001F003
:10228000CBFD214B214AE850043BEA50204B21482A
:10229000EF5000F0C5FD204B204DD860687FFFF760
:1022A0009FFE286AFFF710FE686AFFF723FE331CC3
:1022B0002833301CE95C0136FFF730FE082EF6D1DA
:1022C0002B1C30331A78164BE2502B1C3133187804
:1022D0003235FFF7F3FE2878FFF736FFF8BDC0462A
:1022E00000F001405405000000100040FC0F000009
:1022F00014050000FFFEFFFFFFFFF0FFFFFFFFFDE3
:10230000FF00FFFF00E100E05C0500000411004059
:1023100004050000FC010020B40100201802002088
:102320000C05000038B5124B5A7E1D1C002A1DD129
:10233000FFF76CFF0F4B9A681C1C002A02D10E4855
:1023400001F028FA6368002B02D10C4801F022FA50
:1023500001F0FEF9002802D0094801F01BFA002024
:1023600001F0E8F901236B76FFF702FC38BDC046A7
:10237000E0010020B40100205E0209005F020900B4
:102380006602090070B5274D86B02B786A78002068
:102390009A4244D0834201D1FFF738FF6B78002B7B
:1023A00001D1FFF779FB00241F4B204AD45000F0E5
:1023B000FFFC1F4E2B78346074603461B460F460AD
:1023C000012B08D101F0F6F8A04217D0201C211CE7
:1023D00001F000F812E0022B10D100F0E9FC154BDF
:1023E00034611C7001F0E6F8032807D100940194D1
:1023F000201C211C221C231C01F038F8FFF7F2FAE4
:102400006B7803A82B7004230370002343600381BF
:10241000438143708370C37000F0A4FE012006B0B6
:1024200070BDC046E00100205405000000F00140EE
:10243000FC0100201402002008B5012383F310885A
:10244000084B1A78824208D058705B7E002B02D16C
:10245000FFF798FF01E0FFF78BFB002383F3108861
:1024600008BDC046E0010020F7B50127019087F3C1
:10247000108803230026514C514D2370514BAE6000
:102480001E605E609E60DE601E611E756E60A670DE
:102490006660A660A681E68126616661267666761C
:1024A000677001F0C9FB019800F042FE00F0DEFE0B
:1024B000301C01F037F9281C01F070F9C222FF210D
:1024C000414B92009B5840488B433F498B50C02161
:1024D0003D4B89005A583D4B1A404250C52292004C
:1024E00081580B408021C9010B438350381CFFF7F2
:1024F000A3FFFF23364D03202B61364B291C2B6293
:10250000354B29316B622B1C28331F7002230B7053
:10251000291C2A310870291C04222B310A706A7781
:102520002A1C05212C3211702A1CC9192D32117058
:102530002A1CC9192E3211702A1CC9192F32117088
:102540002A1C303216702A1C313213702A1C323287
:1025500017701E226A61962292006A60EB60FFF794
:1025600041FA0F23AB60FFF73DFA301C6E832E77E4
:102570002F766F7601F0C8F869232B606378124ECE
:10258000BB4202D0154801F005F900252770A5705F
:102590006560A560A581E581256165612576657623
:1025A000FFF734FEC02380225B005200F2508022ED
:1025B0009203F25085F31088201CFEBDE00100203C
:1025C000B4010020FC01002000E100E0FF00FFFF5B
:1025D0001802002004070A0D05080B0E3C02090032
:1025E000014B32331878704718020020054B10B5A4
:1025F000DB68041C002B02D1034801F0CBF8034B2D
:102600001C7510BDB4010020F6030900FC01002078
:10261000014B18767047C04618020020014B187E07
:102620007047C04618020020014B58767047C046DC
:1026300018020020014B587E7047C0461802002047
:10264000014B18777047C04618020020014B187FD5
:102650007047C0461802002008B501F055F808BDC3
:1026600008B50B4BDB685B7D002B06D0012000F02A
:102670003FFB084A9389013393810020064B074AA8
:10268000D050074A0ACA591AFFF7EBF908BDC046ED
:10269000B4010020E00100205405000000F00140DA
:1026A00018020020084B10B51A781C1C012A02D011
:1026B000064801F06FF8022300222370044B1A61D0
:1026C000044ADA6010BDC0461402002092050900D9
:1026D000FC010020C929000010B500F069FB0023AF
:1026E0000122184C2361184B1A70184B184A1969AB
:1026F000A623DB00D15000F05DFF00280AD100F0D6
:1027000063FD01280DD900F0FFFD6060002808D1AD
:10271000104804E000F04EFF032802D00E4801F0FC
:1027200039F8022000F08CFC002000F0E1FA00F003
:1027300041FF032802D0094801F02CF8FFF7B2FF4F
:1027400010BDC046FC010020140200201802002029
:10275000001000407B05090080050900880509007C
:1027600070B5A1240B4DE4002E5901F0D5F8864236
:102770000AD001F0D1F82851FFF7AEFF064B002038
:102780005968FFF76EF970BD044B1B78002BF3D02E
:10279000F4E7C04600100040180200201402002098
:1027A000F0B5804C89B06369002B00D0D1E001F016
:1027B000ADFA002800D0CCE02378012B02D100F044
:1027C000EDFA12E0022B08D000F0F8FFFFF71AF93B
:1027D000A678002E00D0A5E00BE00122724B1B78FA
:1027E000033BDBB29A424041C0B2002800D0C2E0B5
:1027F000EAE7FFF7C7FD6D4D071E00D08DE0267894
:10280000012E06D0002E63D0022E66D1FFF7A8FF5E
:1028100066E000F0CDFA00F0CDFE00281DD100F0FA
:10282000D3FC012851D9FFF7D1F8061E0CD001F0D6
:10283000B1F8002849D12B7E002B0BD101F092F882
:102840002369984241D105E0206901F079F8301CF4
:1028500001F08EF8FFF7C0F937E06B8B002B20D02A
:10286000A2899A421DD3311C381C00F0B3FD00F040
:102870003FFD0190A3890293E389039300F032FDA9
:10288000019A05AB06926A46128958701A816A4607
:102890009289181C1E705A819F70DF7000F062FCD4
:1028A00013E001F033FA002802D0414800F072FF33
:1028B000A123404ADB00D65801F02EF8864202D010
:1028C000E3890133E381FFF70DF90120296801E075
:1028D000301C6968FFF7C5F802E0374800F05AFF7E
:1028E0006B7E012B20D1FFF771F800281CD12378D3
:1028F000012B07D0002B0DD0022B15D02F4800F054
:1029000049FF11E000F056FE00280DD100F0E4FC74
:10291000002809D1FFF712F906E0301C6968FFF7BB
:10292000A0F801E0FFF784F900F04EFC01280CD973
:10293000032305A803700023436003814381437090
:102940008370C37000F00EFC2AE01D4800F022FFE7
:1029500026E0FFF757F8A578002D1DD12378022B2C
:1029600012D1114B1B78033B012B04D900F026FF39
:10297000FFF7F6FE14E00D4B124859680122490892
:10298000616101F0C9F90BE000F018FF074B281C4A
:102990005968FFF766F803E000F010FFFFF748F909
:1029A00009B0F0BDE0010020140200201802002050
:1029B0000A050900001000405804090072040900CB
:1029C0008C04090075370000802370B5454ADB0090
:1029D000D35886B0444C012B04D0444BD15800232B
:1029E000994205D1636820201978002388425B4111
:1029F00003213F4D2970002121608B4254D0812357
:102A00000120DB00D658D1583A4BD1503A4B311CFB
:102A1000D25802AB00930194031C00F027FD032859
:102A200040D801F035FA1D021F4D029B002B02D049
:102A3000324800F0AFFE301C00F0F4FD002802D157
:102A40002F4800F0A7FE2F4B03A8DB689A7D0223D6
:102A500003700023467043600381438182701DE050
:102A600029482BE0029B002B02D1284800F092FE5F
:102A7000301C00F0D7FD002802D1254800F08AFE66
:102A8000204B03A8DB689A7D02230370029B4670EB
:102A9000436000238270038143810133C37000F0DF
:102AA00061FB0DE01B4809E000930193181C191C01
:102AB0001A1C00F0DBFC042802D0174800F06AFE64
:102AC0002668002E06D100F073F966752661FFF7BF
:102AD00003FE05E001236375104B236104232B7073
:102AE00006B070BD00100040FC010020340500005D
:102AF000140200202C0500000C040000B805090099
:102B0000B9050900B4010020BD050900C005090090
:102B1000C1050900C8050900CF050900212B0000E7
:102B2000052208B5024B1A70FFF7D6FD08BDC04656
:102B3000140200200138C046C046C046C046C04608
:102B4000C046C046C046C046C046C046C046F1D199
:102B500070478023002170B5C224154A9B00D150D4
:102B6000144BA4001E78144D032E06D109391151BF
:102B7000C1210824890054500BE0012676421651E9
:102B8000C0220E4C52000336A6507E3AFF3A29610D
:102B90005A7000226A606A61AA605A601A7590428F
:102BA00005D0074B1B681B69934200D0984770BD46
:102BB000001000404C020020FC10004000E100E04A
:102BC000C4010020F8B53D4B1A69012A54D10332E3
:102BD0001A709A69032101329A6180220220384DCD
:102BE0009200A9503749803A88500021364A374E22
:102BF0001161516051619160C121063089006850B6
:102C00003168141C097D002916D0A922D200AA58C7
:102C10009A75A0222E4BD2009A581F1C530502D43D
:102C20002C4800F0B7FD002323620133AB61802202
:102C3000A123D200DB00FA506368002B02D02648A3
:102C400000F0A8FD2369002B02D0244800F0A2FD6B
:102C5000234B5B689B0702D5224800F09BFD33683D
:102C6000DB68002B00D0984733685A7D002A23D0B8
:102C70001A681D4BEA501FE0022A1AD1002212499D
:102C800001240A614A614A608A6080210C488900F7
:102C900042500931FF3164421A70445003215A6096
:102CA00059701A75094B1B681B69934204D09847E9
:102CB00002E00E4800F06EFDF8BDC0464C02002058
:102CC0000010004000E100E0FC100040C4010020C2
:102CD00000F00140AD020A00B6020A00B7020A0085
:102CE000FCE100E0B8020A0004050000E7020A0067
:102CF00070B51F4C061C637D6578002B02D11D4802
:102D000000F048FD237D002B02D01B4800F042FD5F
:102D10000123002223756275022D0ED8964203D13D
:102D2000164A29018A5813606B1E012B08D8134AD2
:102D30002B01D3189B7A237002E0114800F02AFD82
:102D4000104B1B681B7D002B11D0022D0FD10E4B99
:102D50000E4A1C1CD258530502D40D4800F01AFD2F
:102D60000C4B1B59002B02D10B4800F013FD70BD1A
:102D70004C02002021010A0022010A006C3F0000E1
:102D80003A010A00C40100200405000000F00140DF
:102D900040010A000010004041010A00034B9868FE
:102DA000013843425841C0B27047C046FC10004051
:102DB00002200121C222F8B5144B4942D867144BB6
:102DC00092009950134D893AFF3A8021A850002271
:102DD000114F89005A50114C7A6101321A619A617F
:102DE0002378934201D1043003E0023B012B00D948
:102DF000101C0026FFF79EFE7E61301C2670FFF738
:102E0000A8FE022366752B60F8BDC04604E100E011
:102E10000010004000E100E0FC1000404C020020E7
:102E200038B502250C4B0D4C1860231DDD670C498D
:102E30000C4B0D4A99500D49043A9950FFF7B8FFD1
:102E4000002303220A480370427043600361037544
:102E500043758375256038BDC401002000E100E0A2
:102E60001410004000F0014064050000041100400F
:102E70004C02002070B55C4C2369667801332361F5
:102E8000637D002B02D0594800F084FC2378032B8B
:102E900048D1574D2B69002B44D0012E35D12369E1
:102EA000032B02D0534800F075FCA3698020013346
:102EB000A3610221002301264F4A80002170135094
:102EC00009307642FF30165089384C4EFF38315069
:102ED00001312B616B606B61AB606170484963606D
:102EE00009682375087D98420DD0A920C0001058AC
:102EF000A0753F480362013393618020A123414ABA
:102F0000C000DB00D050CB6865E0022E08D12369F9
:102F1000012B02D03C4800F03DFCFFF753FE61E07E
:102F20003A485DE0032E5AD0012E3AD12369012B95
:102F300017D100212E4A304B51609160C2220139D5
:102F400092009950043A9E502D4A1268117D304AE1
:102F5000002903D080202B49C0008850E168995097
:102F600040E0022B3ED10023214902200B614B613E
:102F70004B608021204A8900535009314042FF3183
:102F800050500A30043950500322636023751C4BA3
:102F900022701A681C1C1269002A00D0904723680E
:102FA00018E0022EB9D0002563781A4A1B01D11807
:102FB000097BA94204D00E490D69691E8D41EDB20D
:102FC000D3189B7A01202370FFF7C3FD002D09D091
:102FD0000B4B1B689B68002B04D0984702E00E48FF
:102FE00000F0D8FB70BDC0464C02002090010A00E2
:102FF000FC1000409F010A000010004000E100E0CA
:10300000C401002000F00140A4010A00A9010A0047
:10301000040500006C3F0000D6010A0008B5022834
:1030200005D8054B187843425841C0B203E0034825
:1030300000F0B0FB002008BD4C020020F9020A009D
:10304000F0B52F4C85B0237D061C002B02D02D48F7
:1030500000F0A0FB301CFFF7E1FF002802D12A4856
:1030600000F098FB0121C22200230220274D494293
:1030700092006375A9502649893AFF3A885025483D
:10308000370102686670116852682361A361224BA0
:103090000192E260FA58A160626003900293022EEE
:1030A0001CD88020DB191A7A80002A50D87A1B4B52
:1030B000002805D1E950EB58002B09D1184805E04C
:1030C000019AEA50EB58002B02D1164800F062FB3F
:1030D000029BDF19C1237A7A9B00EA50039B1B688D
:1030E0001B7D002B08D0022E06D100238021A37562
:1030F0000D4A0A4BC900D1500123637505B0F0BDDC
:103100004C020020DB000A00DD000A000010004035
:1031100000E100E0C40100206C3F00000405000055
:1031200000010A0005010A0000F001407047C04696
:1031300010B5041E02D1084800F02CFB0022074BFA
:103140001C60191DDA670833CA67DA678022044BEE
:1031500092031A6010BDC04629000B0070020020C7
:1031600000E100E038B5144C051C2368002B02D1A7
:10317000124800F00FFB231C0833DB6F092B02D928
:103180000F4800F007FB0C23E26F5343E3180433AE
:1031900007CD07C3221C0832D36F0133D367E36F17
:1031A0000133E367E36F092B01D90023E367802232
:1031B000044B92035A6038BD7002002034000B00AB
:1031C00035000B00FCE100E0034B0833D86F0A2305
:1031D000181AC0B27047C04670020020F0B585B022
:1031E000012383F31088144B1D1C0835EA6F9C469D
:1031F0001E1C002A1BD00C22191DCB6F01AC53439F
:10320000221CF3180433C1CBC1C2EB6F013BEB6747
:10321000CB6F0133CB67CA6F0023092A00D9CB6774
:1032200083F31088634607CC1B689847D8E782F37E
:10323000108805B0F0BDC0467002002038B5094CBA
:10324000051CE36F002B02D1074800F0A3FA291CEC
:10325000E06F083100F03EFC002801D00023E36756
:1032600038BDC046F80200206F020C0038B500F0EF
:10327000BDFB00211248134A00238C18251C8834FA
:103280008035036003622B7023700F4C04300C19DF
:10329000013123700829EED1111C90310B70111CE3
:1032A00091310B70111C5831137053609360D360CF
:1032B00013615361D3670B7092320133137038BDC1
:1032C00010030020F80200208C030020014B185C42
:1032D0007047C0468C030020014B9033187870472C
:1032E000F8020020014B58687047C046F8020020E1
:1032F000014B98687047C046F8020020014BD8681F
:103300007047C046F802002010B5104C2378002BFF
:1033100002D00F4800F03EFAE36F002B02D100F01C
:103320008DFBE067E06F00280FD0FF2306220370BB
:1033300043781343021C43702232831CFF2119700F
:1033400001339342FAD10323237010BDF802002009
:103350003B010C0038B5124C2378002B1ED1231CE6
:1033600090331B78002B19D10825606900F02EFCE2
:10337000002805D0231C012290331A706369236151
:1033800063690133082B00D100236361231C903350
:103390001B78002B02D1013D002DE6D138BDC0467F
:1033A000F802002038B5094C051C231C90331B780B
:1033B000002B04D02369834201D1FFF7CBFF002308
:1033C0006419034A80345355237038BDF802002035
:1033D0008C030020F8B51F4C071C23780E1C013B02
:1033E000012B02D91C4800F0D5F90425002F19D073
:1033F0002378012B02D0194800F0CCF9E368002BA8
:1034000002D1174800F0C6F90025E3681B78AB42EB
:1034100008D06068FFF712FF0235002802D111487A
:1034200000F0B8F9002E0ED06768381C00F088FB59
:10343000061E02D0381CFFF7B5FFA3689E4202D0DB
:10344000094800F0A7F900232370FFF783FF281C29
:10345000F8BDC046F8020020FC000C0002010C0080
:1034600003010C000E010C001E010C00F0B54A4CCB
:1034700085B00393E36F071C0E1C0192002B02D151
:10348000464800F087F92378032B02D0444800F027
:1034900081F90125E36F5B782B4202D192342278C7
:1034A00055400424002F4CD0019A5B0717029B0F54
:1034B0001B063F0A1F43331C374A0E339B00D2586A
:1034C0000023341C0A9908340B600B990B60974257
:1034D00004D101221540019502930BE0301CFFF747
:1034E000ADFE0290002D00D0051C01221540019573
:1034F000002801D103240CE0A31D27499B005F5045
:10350000039B141C002B04D0264D141CAB5D002B18
:103510001ED1019B002B0ED0301C00F03BFB0B9BFF
:103520001860002803D1204B0B9A136006E001229B
:103530001C4B9A5502E00B9B019A1A60029B002BD0
:1035400021D1154DE86F00F097FA0023EB671AE0E0
:10355000301C00F03BFB002802D1144800F01AF99F
:10356000301C00F0EDFA041E02D0301CFFF71AFFE9
:103570000A9B1C60002C02D10D4800F00BF90023BF
:103580000224AB55C5E70022034B1A70FFF7E2FE99
:10359000201C05B0F0BDC046F80200205B010C0005
:1035A0005C010C008C0300205003002091010C00F2
:1035B00096010C00014B18787047C046F8020020B5
:1035C00038B5041C0D1C00F013FB002801D10020AD
:1035D00008E0281C211C00F07DFA0028F7D0FFF736
:1035E000B9FE012038BD08B500F0D4FA08BD10B509
:1035F000041CFFF7D7FE201C00F000FB10BD08B52F
:1036000000F0E4FA08BD08B5083000F0C3FA08BDC0
:1036100008B5083000F094FA08BD08B5083000F08D
:10362000EDFA08BD08B5083000F0D0FA08BD10B5B5
:103630002B4C2378002B02D02A4800F0ABF8231C37
:1036400090331B78002B28D02369181C636000F08E
:10365000A1FAA060002802D1234800F09BF8A368DB
:103660005A780123134004D1221C92321278002A86
:1036700010D16068FFF7D6FF02280ED8E36F002B49
:1036800002D100F0DBF9E067E36FE360002B04D0C8
:10369000012301E0E36002232370002023788342AA
:1036A0001CD0A368834202D1104800F073F823694C
:1036B0000321636006339B00E318DA78A0680132C7
:1036C000D2B2DA70131C0B405A00437849188B436E
:1036D00013434370002301209034237010BDC04673
:1036E000F8020020C3000C00C9000C00E7000C0029
:1036F00008B500F0A3F908BD08B500F0BDF908BD94
:1037000008B500F075FA08BD014B92331870704788
:10371000F8020020014B923318787047F80200201D
:103720007047C046024B9870587018707047C0467A
:103730009403002010B5041E012C02D9024800F0A9
:1037400029F8024B5C7010BD2A000D009403002084
:10375000014B18787047C04694030020014B9878BD
:103760007047C04694030020014B58787047C0460C
:103770009403002008B5054A1378937053781370AA
:10378000034A9B009B58984708BDC04694030020FD
:103790008000002008B5FEF70FF908BD10B5041E23
:1037A00002D10448FFF7F6FF0022034B1C605A6069
:1037B0009A6010BD2A000100C8010020084B18685B
:1037C0009A68016801329A608A4208D300215A68D7
:1037D0004068013299605A60824200D35960704754
:1037E000C8010020F8B500282BD0164CA36801288A
:1037F0000FD1216801330A68A360934221D30022CC
:10380000636849680133A26063608B4219D36260C8
:1038100017E02668C7183568A760381C291C00F017
:1038200041FB6368C0186060381CA84201D3401B8C
:10383000FBE763687268A060934201D39B1AFBE7C1
:103840006360F8BDC8010020024A136890681B68D5
:10385000181A7047C801002070B50D4D041E2B6862
:103860005B689C4202D30B48FFF794FF6E68002010
:10387000B4420BD002D82B685B68E418F643FFF71C
:10388000E3FF2B6834191B685C43201870BDC046E9
:10389000C80100206800010070B5041C0E1C88429D
:1038A00002D30B48FFF776FF0A4D2B681B689E4238
:1038B00002D90948FFF76EFFAA68A01AA24206D3F0
:1038C0000020B24203D32B681B68981A001970BD00
:1038D0007D000100C80100207E00010038B5041CF5
:1038E000101C0D1CFFF7B8FF002801D004190FE0D1
:1038F000201C291CFFF7D0FF041CFFF7A5FF844202
:1039000006D3044B1B685A681B68013A5343E418FA
:10391000201C38BDC8010020074B10B51A68596833
:1039200052681C1C914202D30448FFF733FF2368FE
:103930009A686368D05C10BDC8010020B200010025
:1039400038B5064B051C1A681C1C5268904202D3FD
:103950000348FFF71FFF656038BDC046C80100205F
:10396000B9000100014B58687047C046C8010020EB
:1039700038B5064B051C1A681C1C1268904202D30D
:103980000348FFF707FFA56038BDC046C801002007
:10399000C5000100014B98687047C046C80100206F
:1039A0000E4B10B51A68002393420BD20C499C00B1
:1039B0006158884203D10B48FFF7ECFE0AE001335F
:1039C000DBB2F1E70023084A9A18904204D0223370
:1039D000CC2BF8D1002000E0012010BD980300207E
:1039E0009C030020F6000300A4040020002210B570
:1039F0000321002351430D48013244186370A37022
:103A00000B54102AF4D10A490A1C0A4C223A980095
:103A10002250DE20107001328A42FAD12232013364
:103A2000111C062BF0D1044A136010BDB403002012
:103A3000C60400209C030020980300200A4A38B5E1
:103A400013681C1E0ED0013B084998004458084DCD
:103A500013604550201CFFF7A3FF002802D1054842
:103A6000FFF798FE201C38BD980300209C0300201F
:103A7000ADDEADDE7D00030070B5104C051C236883
:103A8000052B02D90E48FFF785FE281CFFF788FF9B
:103A9000002802D10B48FFF77DFE23680A4A9B00ED
:103AA00099580A4B161C994202D00948FFF772FE3A
:103AB00023689A000133B550236070BD980300203D
:103AC00085000300860003009C030020ADDEADDE10
:103AD0008800030070B5051C0C1E0F2C02D9144879
:103AE000FFF758FE281CFFF75BFF002802D11148A2
:103AF000FFF750FE032161430F4B0020CA5C022AEE
:103B000014D85A18567889190C4E89008D5151785D
:103B10000131C9B251705178022900D95070032285
:103B2000012054431A5D0132D2B21A5570BDC0460D
:103B30008F00030090000300B4030020E403002082
:103B400010B5041E0F2C02D90F48FFF723FE0321E6
:103B500061430E4BCA5CD2B2101E14D05A18907832
:103B600009180B488900085891780131C9B2917041
:103B70009178022901D900219170032254431A5DE2
:103B8000013AD2B21A5510BDA6000300B4030020BA
:103B9000E403002010B5041E0F2C02D90848FFF7DB
:103BA000F9FD0320021C6243064BD15CC9B2081E1A
:103BB00005D09B189B78D018034B8000C05810BDCF
:103BC000B7000300B4030020E403002010B5041E76
:103BD0000F2C02D90448FFF7DDFD03206043034B9F
:103BE000C05CC0B210BDC046C8000300B4030020D2
:103BF000014B18687047C0469803002038B5051E71
:103C00000F2D0CD90948FFF7C5FD08E0084B9C4271
:103C100002D10848FFF7BEFD201CFFF72DFF281C2E
:103C2000FFF78EFF041EF1D138BDC046D700030058
:103C3000ADDEADDEDB000300A12101220020154B2B
:103C4000C90010B55A60DA6058505A64124A1C1CF8
:103C50009A58824202D01148FFF79CFD0122C223EC
:103C600052429B00E25000230D4A04215364A222D9
:103C70000120D200A1500B4A0B49136013715371FC
:103C800008708022C021094B520049005A501A6026
:103C900010BDC0460080004044050000350004000F
:103CA000FC800040D40100207005002000E100E00D
:103CB0000122034B1A600022024B1A707047C04663
:103CC0000080004070050020012330B5C020802511
:103CD0000021074A074C5360D360074A6D0040003B
:103CE0001160117125505171044A137030BDC046E6
:103CF0000080004000E100E0D401002070050020B9
:103D0000014B18787047C04670050020014B1879A8
:103D10007047C046D4010020F7B5C223009280222C
:103D2000324C334E9B0052020191E2507379051CD4
:103D3000002B02D02F48FFF72DFD002D02D12E4879
:103D4000FFF728FD3368002B02D02C48FFF722FD37
:103D5000009B35602A4F012B0DD0002B03D0022B86
:103D60000DD1A92308E00123264A6364A5582364E2
:103D7000009B7B6407E0A823DB00E55803E02248B2
:103D8000FFF708FD0025A82001210022019BC000AB
:103D9000EB189BB271717A64235023580093194B2E
:103DA0006164E6587B6C171C934202D01748FFF7FA
:103DB000F1FC009BAB4205D3AE4201D39E420ED331
:103DC00013480AE03B1C009A96427B41AE427F4179
:103DD000DBB2FFB2BB4202D00E48FFF7DBFC802211
:103DE000C12352029B00E250F7BDC0460080004054
:103DF000D401002073000400750004007600040064
:103E0000FC80004044050000890004009B00040081
:103E1000B0000400C900040000487047488000401A
:103E200000487047408100408022C22370B50026C0
:103E3000114D9B005202EA50104C114B5E642368F6
:103E4000B34202D10F48FFF7A5FC01230E4A2068B8
:103E5000667126606B64A958043AAA580B4D143257
:103E6000A94203D8C0252D02AA4202D800239142BC
:103E70005B412371804770BD00800040D401002069
:103E8000FC800040EC00040044050000FF3F0000FF
:103E900002B4714649084900095C49008E4402BCDD
:103EA0007047C046002934D00123002210B4884254
:103EB0002CD301242407A14204D2814202D2090159
:103EC0001B01F8E7E400A14204D2814202D249007A
:103ED0005B00F8E7884201D3401A1A434C08A0421D
:103EE00002D3001B5C0822438C08A04202D3001BB3
:103EF0009C082243CC08A04202D3001BDC082243CA
:103F0000002803D01B0901D00909E3E7100010BC09
:103F1000704701B5002000F00BF802BD0029F8D071
:103F200003B5FFF7C1FF0EBC4243891A1847C046CC
:103F30007047C046002310B59A4200D110BDCC5C3A
:103F4000C4540133F8E70000F8B5C046F8BC08BC1B
:103F50009E467047F8B5C046F8BC08BC9E46704700
:103F60000000002000300040000000000010004071
:103F7000101100400310000001000000001000407C
:103F8000000000000B0204000000000004100040CC
:103F9000000000000708030100000000000000000E
:083FA00068C1FF7F0100000071
:103FA8000000000000000000000000000000000009
:103FB80000000000000000000000000000000000F9
:103FC80000000000000000000000000000000000E9
:103FD80000000000000000000000000000000000D9
:103FE80000000000000000000000000000000000C9
:103FF80000000000000000000000000000000000B9
:104008003C010020040000000024F400050000002A
:1040180004192A3F4D0000000000000000000000C5
:10402800A127000061260000E9000000C10000008F
:0400000300001049A0
:00000001FF
